{
  "_format": "hh-sol-artifact-1",
  "contractName": "APIConsumer",
  "sourceName": "contracts/ApiConsumer.sol",
  "abi": [
    {
      "inputs": [],
      "stateMutability": "nonpayable",
      "type": "constructor"
    },
    {
      "anonymous": false,
      "inputs": [
        {
          "indexed": true,
          "internalType": "bytes32",
          "name": "id",
          "type": "bytes32"
        }
      ],
      "name": "ChainlinkCancelled",
      "type": "event"
    },
    {
      "anonymous": false,
      "inputs": [
        {
          "indexed": true,
          "internalType": "bytes32",
          "name": "id",
          "type": "bytes32"
        }
      ],
      "name": "ChainlinkFulfilled",
      "type": "event"
    },
    {
      "anonymous": false,
      "inputs": [
        {
          "indexed": true,
          "internalType": "bytes32",
          "name": "id",
          "type": "bytes32"
        }
      ],
      "name": "ChainlinkRequested",
      "type": "event"
    },
    {
      "inputs": [
        {
          "internalType": "bytes32",
          "name": "_requestId",
          "type": "bytes32"
        },
        {
          "internalType": "uint256",
          "name": "_volume",
          "type": "uint256"
        }
      ],
      "name": "fulfill",
      "outputs": [],
      "stateMutability": "nonpayable",
      "type": "function"
    },
    {
      "inputs": [],
      "name": "requestVolumeData",
      "outputs": [
        {
          "internalType": "bytes32",
          "name": "requestId",
          "type": "bytes32"
        }
      ],
      "stateMutability": "nonpayable",
      "type": "function"
    },
    {
      "inputs": [],
      "name": "volume",
      "outputs": [
        {
          "internalType": "uint256",
          "name": "",
          "type": "uint256"
        }
      ],
      "stateMutability": "view",
      "type": "function"
    },
    {
      "inputs": [],
      "name": "withdrawLink",
      "outputs": [],
      "stateMutability": "nonpayable",
      "type": "function"
    }
  ],
  "bytecode": "0x608060405260016004553480156200001657600080fd5b5062000027620000b860201b60201c565b733a56ae4a2831c3d3514b5d7af5578e45ebdb7a40600760006101000a81548173ffffffffffffffffffffffffffffffffffffffff021916908373ffffffffffffffffffffffffffffffffffffffff1602179055507f653562306536616561623336343035626133336165613132633639383865643660088190555067016345785d8a000060098190555062000235565b6200015e73c89bd4e1632d3a43cb03aaad5262cbe4038bc57173ffffffffffffffffffffffffffffffffffffffff166338cc48316040518163ffffffff1660e01b815260040160206040518083038186803b1580156200011757600080fd5b505afa1580156200012c573d6000803e3d6000fd5b505050506040513d601f19601f82011682018060405250810190620001529190620001bb565b6200016060201b60201c565b565b80600260006101000a81548173ffffffffffffffffffffffffffffffffffffffff021916908373ffffffffffffffffffffffffffffffffffffffff16021790555050565b600081519050620001b5816200021b565b92915050565b600060208284031215620001ce57600080fd5b6000620001de84828501620001a4565b91505092915050565b6000620001f482620001fb565b9050919050565b600073ffffffffffffffffffffffffffffffffffffffff82169050919050565b6200022681620001e7565b81146200023257600080fd5b50565b61193480620002456000396000f3fe608060405234801561001057600080fd5b506004361061004c5760003560e01c80634357855e146100515780636021abac1461006d5780638dc654a21461008b578063c618a1e414610095575b600080fd5b61006b60048036038101906100669190610f92565b6100b3565b005b6100756101c4565b6040516100829190611236565b60405180910390f35b61009361034b565b005b61009d6104ae565b6040516100aa91906112b1565b60405180910390f35b816005600082815260200190815260200160002060009054906101000a900473ffffffffffffffffffffffffffffffffffffffff1673ffffffffffffffffffffffffffffffffffffffff163373ffffffffffffffffffffffffffffffffffffffff1614610155576040517f08c379a000000000000000000000000000000000000000000000000000000000815260040161014c90611291565b60405180910390fd5b6005600082815260200190815260200160002060006101000a81549073ffffffffffffffffffffffffffffffffffffffff0219169055807f7cc135e0cebb02c3480ae5d74d377283180a2601f8f644edf7987b009316c63a60405160405180910390a281600681905550505050565b6000806101db60085430634357855e60e01b6104b4565b905061023f6040518060400160405280600381526020017f67657400000000000000000000000000000000000000000000000000000000008152506040518060800160405280604981526020016118b660499139836104e59092919063ffffffff16565b6102be6040518060400160405280600481526020017f70617468000000000000000000000000000000000000000000000000000000008152506040518060400160405280601681526020017f5241572e4554482e5553442e4f50454e3234484f555200000000000000000000815250836104e59092919063ffffffff16565b6000670de0b6b3a764000090506103156040518060400160405280600581526020017f74696d657300000000000000000000000000000000000000000000000000000081525082846105189092919063ffffffff16565b610344600760009054906101000a900473ffffffffffffffffffffffffffffffffffffffff168360095461054b565b9250505090565b600061035561056b565b90508073ffffffffffffffffffffffffffffffffffffffff1663a9059cbb338373ffffffffffffffffffffffffffffffffffffffff166370a08231306040518263ffffffff1660e01b81526004016103ad919061112f565b60206040518083038186803b1580156103c557600080fd5b505afa1580156103d9573d6000803e3d6000fd5b505050506040513d601f19601f820116820180604052508101906103fd9190610fce565b6040518363ffffffff1660e01b815260040161041a92919061114a565b602060405180830381600087803b15801561043457600080fd5b505af1158015610448573d6000803e3d6000fd5b505050506040513d601f19601f8201168201806040525081019061046c9190610f69565b6104ab576040517f08c379a00000000000000000000000000000000000000000000000000000000081526004016104a290611271565b60405180910390fd5b50565b60065481565b6104bc610e8e565b6104c4610e8e565b6104db85858584610595909392919063ffffffff16565b9150509392505050565b6104fc82846080015161064590919063ffffffff16565b61051381846080015161064590919063ffffffff16565b505050565b61052f82846080015161064590919063ffffffff16565b61054681846080015161066a90919063ffffffff16565b505050565b60006105628484846001634042994660e01b610717565b90509392505050565b6000600260009054906101000a900473ffffffffffffffffffffffffffffffffffffffff16905090565b61059d610e8e565b6105ad856080015161010061097f565b508385600001818152505082856020019073ffffffffffffffffffffffffffffffffffffffff16908173ffffffffffffffffffffffffffffffffffffffff16815250508185604001907bffffffffffffffffffffffffffffffffffffffffffffffffffffffff191690817bffffffffffffffffffffffffffffffffffffffffffffffffffffffff191681525050849050949350505050565b61065282600383516109e9565b6106658183610b2e90919063ffffffff16565b505050565b7fffffffffffffffffffffffffffffffffffffffffffffffff00000000000000008112156106a15761069c8282610b50565b610713565b67ffffffffffffffff8113156106c0576106bb8282610bc7565b610712565b600081126106d9576106d4826000836109e9565b610711565b610710826001837fffffffffffffffffffffffffffffffffffffffffffffffffffffffffffffffff61070b919061151a565b6109e9565b5b5b5b5050565b60003060045460405160200161072e929190611103565b604051602081830303815290604052805190602001209050600454856060018181525050856005600083815260200190815260200160002060006101000a81548173ffffffffffffffffffffffffffffffffffffffff021916908373ffffffffffffffffffffffffffffffffffffffff160217905550807fb5e6e01e79f91267dc17b4e6314d5d4d03593d2ceee0fbb452b750bd70ea5af960405160405180910390a2600082600080886000015189602001518a604001518b606001518a8d608001516000015160405160240161080c989796959493929190611173565b604051602081830303815290604052907bffffffffffffffffffffffffffffffffffffffffffffffffffffffff19166020820180517bffffffffffffffffffffffffffffffffffffffffffffffffffffffff83818316178352505050509050600260009054906101000a900473ffffffffffffffffffffffffffffffffffffffff1673ffffffffffffffffffffffffffffffffffffffff16634000aea08887846040518463ffffffff1660e01b81526004016108ca939291906111f8565b602060405180830381600087803b1580156108e457600080fd5b505af11580156108f8573d6000803e3d6000fd5b505050506040513d601f19601f8201168201806040525081019061091c9190610f69565b61095b576040517f08c379a000000000000000000000000000000000000000000000000000000000815260040161095290611251565b60405180910390fd5b60016004600082825461096e91906112f9565b925050819055505095945050505050565b610987610efb565b600060208361099691906116ef565b146109c2576020826109a891906116ef565b60206109b491906115ae565b826109bf91906112f9565b91505b81836020018181525050604051808452600081528281016020016040525082905092915050565b60178111610a1657610a108160058460ff16901b60ff161784610c1390919063ffffffff16565b50610b29565b60ff8111610a5857610a3b601860058460ff16901b1784610c1390919063ffffffff16565b50610a5281600185610c339092919063ffffffff16565b50610b28565b61ffff8111610a9b57610a7e601960058460ff16901b1784610c1390919063ffffffff16565b50610a9581600285610c339092919063ffffffff16565b50610b27565b63ffffffff8111610ae057610ac3601a60058460ff16901b1784610c1390919063ffffffff16565b50610ada81600485610c339092919063ffffffff16565b50610b26565b67ffffffffffffffff8111610b2557610b0c601b60058460ff16901b1784610c1390919063ffffffff16565b50610b2381600885610c339092919063ffffffff16565b505b5b5b5b5b505050565b610b36610efb565b610b4883846000015151848551610c55565b905092915050565b610b6e60036005600660ff16901b1783610c1390919063ffffffff16565b50610bc382827fffffffffffffffffffffffffffffffffffffffffffffffffffffffffffffffff610b9f919061151a565b604051602001610baf91906112b1565b604051602081830303815290604052610d44565b5050565b610be560026005600660ff16901b1783610c1390919063ffffffff16565b50610c0f8282604051602001610bfb91906112b1565b604051602081830303815290604052610d44565b5050565b610c1b610efb565b610c2b8384600001515184610d69565b905092915050565b610c3b610efb565b610c4c848560000151518585610dc0565b90509392505050565b610c5d610efb565b8251821115610c6b57600080fd5b84602001518285610c7c91906112f9565b1115610cb157610cb0856002610ca188602001518887610c9c91906112f9565b610e4e565b610cab91906114c0565b610e6a565b5b600080865180518760208301019350808887011115610cd05787860182525b60208701925050505b60208410610d175780518252602082610cf291906112f9565b9150602081610d0191906112f9565b9050602084610d1091906115ae565b9350610cd9565b60006001856020036101000a03905080198251168184511681811785525050508692505050949350505050565b610d5182600283516109e9565b610d648183610b2e90919063ffffffff16565b505050565b610d71610efb565b83602001518310610d9757610d968460028660200151610d9191906114c0565b610e6a565b5b8351805160208583010184815381861415610db3576001820183525b5050508390509392505050565b610dc8610efb565b84602001518483610dd991906112f9565b1115610e0157610e008560028685610df191906112f9565b610dfb91906114c0565b610e6a565b5b6000600183610100610e1391906113a2565b610e1d91906115ae565b90508551838682010185831982511617815281518588011115610e405784870182525b505085915050949350505050565b600081831115610e6057829050610e64565b8190505b92915050565b600082600001519050610e7d838361097f565b50610e888382610b2e565b50505050565b6040518060a0016040528060008019168152602001600073ffffffffffffffffffffffffffffffffffffffff16815260200160007bffffffffffffffffffffffffffffffffffffffffffffffffffffffff1916815260200160008152602001610ef5610efb565b81525090565b604051806040016040528060608152602001600081525090565b600081519050610f2481611870565b92915050565b600081359050610f3981611887565b92915050565b600081359050610f4e8161189e565b92915050565b600081519050610f638161189e565b92915050565b600060208284031215610f7b57600080fd5b6000610f8984828501610f15565b91505092915050565b60008060408385031215610fa557600080fd5b6000610fb385828601610f2a565b9250506020610fc485828601610f3f565b9150509250929050565b600060208284031215610fe057600080fd5b6000610fee84828501610f54565b91505092915050565b611000816115e2565b82525050565b61100f81611600565b82525050565b61101e8161160a565b82525050565b600061102f826112cc565b61103981856112d7565b935061104981856020860161168e565b6110528161177e565b840191505092915050565b61106e6110698261166a565b6116c1565b82525050565b60006110816023836112e8565b915061108c826117a9565b604082019050919050565b60006110a46012836112e8565b91506110af826117f8565b602082019050919050565b60006110c76028836112e8565b91506110d282611821565b604082019050919050565b6110e681611660565b82525050565b6110fd6110f882611660565b6116e5565b82525050565b600061110f828561105d565b60148201915061111f82846110ec565b6020820191508190509392505050565b60006020820190506111446000830184610ff7565b92915050565b600060408201905061115f6000830185610ff7565b61116c60208301846110dd565b9392505050565b600061010082019050611189600083018b610ff7565b611196602083018a6110dd565b6111a36040830189611006565b6111b06060830188610ff7565b6111bd6080830187611015565b6111ca60a08301866110dd565b6111d760c08301856110dd565b81810360e08301526111e98184611024565b90509998505050505050505050565b600060608201905061120d6000830186610ff7565b61121a60208301856110dd565b818103604083015261122c8184611024565b9050949350505050565b600060208201905061124b6000830184611006565b92915050565b6000602082019050818103600083015261126a81611074565b9050919050565b6000602082019050818103600083015261128a81611097565b9050919050565b600060208201905081810360008301526112aa816110ba565b9050919050565b60006020820190506112c660008301846110dd565b92915050565b600081519050919050565b600082825260208201905092915050565b600082825260208201905092915050565b600061130482611660565b915061130f83611660565b9250827fffffffffffffffffffffffffffffffffffffffffffffffffffffffffffffffff0382111561134457611343611720565b5b828201905092915050565b6000808291508390505b60018511156113995780860481111561137557611374611720565b5b60018516156113845780820291505b80810290506113928561179c565b9450611359565b94509492505050565b60006113ad82611660565b91506113b883611660565b92506113e57fffffffffffffffffffffffffffffffffffffffffffffffffffffffffffffffff84846113ed565b905092915050565b6000826113fd57600190506114b9565b8161140b57600090506114b9565b8160018114611421576002811461142b5761145a565b60019150506114b9565b60ff84111561143d5761143c611720565b5b8360020a91508482111561145457611453611720565b5b506114b9565b5060208310610133831016604e8410600b841016171561148f5782820a90508381111561148a57611489611720565b5b6114b9565b61149c848484600161134f565b925090508184048111156114b3576114b2611720565b5b81810290505b9392505050565b60006114cb82611660565b91506114d683611660565b9250817fffffffffffffffffffffffffffffffffffffffffffffffffffffffffffffffff048311821515161561150f5761150e611720565b5b828202905092915050565b600061152582611636565b915061153083611636565b9250827f80000000000000000000000000000000000000000000000000000000000000000182126000841215161561156b5761156a611720565b5b827f7fffffffffffffffffffffffffffffffffffffffffffffffffffffffffffffff0182136000841216156115a3576115a2611720565b5b828203905092915050565b60006115b982611660565b91506115c483611660565b9250828210156115d7576115d6611720565b5b828203905092915050565b60006115ed82611640565b9050919050565b60008115159050919050565b6000819050919050565b60007fffffffff0000000000000000000000000000000000000000000000000000000082169050919050565b6000819050919050565b600073ffffffffffffffffffffffffffffffffffffffff82169050919050565b6000819050919050565b60006116758261167c565b9050919050565b600061168782611640565b9050919050565b60005b838110156116ac578082015181840152602081019050611691565b838111156116bb576000848401525b50505050565b60006116cc826116d3565b9050919050565b60006116de8261178f565b9050919050565b6000819050919050565b60006116fa82611660565b915061170583611660565b9250826117155761171461174f565b5b828206905092915050565b7f4e487b7100000000000000000000000000000000000000000000000000000000600052601160045260246000fd5b7f4e487b7100000000000000000000000000000000000000000000000000000000600052601260045260246000fd5b6000601f19601f8301169050919050565b60008160601b9050919050565b60008160011c9050919050565b7f756e61626c6520746f207472616e73666572416e6443616c6c20746f206f726160008201527f636c650000000000000000000000000000000000000000000000000000000000602082015250565b7f556e61626c6520746f207472616e736665720000000000000000000000000000600082015250565b7f536f75726365206d75737420626520746865206f7261636c65206f662074686560008201527f2072657175657374000000000000000000000000000000000000000000000000602082015250565b611879816115f4565b811461188457600080fd5b50565b61189081611600565b811461189b57600080fd5b50565b6118a781611660565b81146118b257600080fd5b5056fe68747470733a2f2f6d696e2d6170692e63727970746f636f6d706172652e636f6d2f646174612f70726963656d756c746966756c6c3f6673796d733d455448267473796d733d555344a2646970667358221220ea71a908ce68ca2c40971485f9ffda2f2e8e15e3e1900ad203dc76871955623464736f6c63430008040033",
  "linkReferences": {},
  "deployedLinkReferences": {}
}